S123F0007EF3A97E00D37EF29A7EF6AE7EF6C27EF6BE7EF6DC7EF6DA7EF6E37EF6FE7EF711
S123F020127EF6B57EF6DE7EF7647EF76F0D0A040D0A3E20040D0A0A4D4333206D6F6E6937
S123F040746F7220312E342E310D0A44616E69656C20547566766573736F6E20323031330E
S123F0602D323031350D0A0D0A20472020476F2028525449290D0A204A20204A756D70202F
S123F080746F20616464726573730D0A204C20204C6F6164205331392066726F6D20636F9D
S123F0A06E736F6C650D0A204D43204D656D6F7279206368616E67650D0A204D44204D65AB
S123F0C06D6F72792064756D700D0A204D46204D656D6F72792066696C6C0D0A204D57206A
S123F0E04D656D6F72792077726974650D0A205252205072696E7420636F6E74656E7473B2
S123F100206F6620737461636B0D0A205243204368616E676520737461636B2043430D0A9B
S123F120205241204368616E676520737461636B20410D0A205242204368616E6765207357
S123F1407461636B20420D0A205258204368616E676520737461636B20580D0A20525020B8
S123F1604368616E676520737461636B2050430D0A205253204368616E676520737461634F
S123F1806B20706F696E7465720D0A20524D20526573657420737461636B20706F696E7466
S123F1A065720D0A2050202053656C65637420492F4F20706167650D0A2053202053696EB5
S123F1C0676C6520737465700D0A20582020456E74657220657874656E64656420524F4DCB
S123F1E00D0A040D0A434320422020412020582020202050432020205350202020202048DA
S123F2002049204E205A205620430D0A040D0A41444452202030202031202032202033208D
S123F2202034202035202036202037202020382020392020412020422020432020442020B9
S123F240452020460D0A040D0A4C6F616420533139207265636F72640D0A040D0A0A4C6FBA
S123F2606164206661696C202D205072657373205920746F20636F6E74696E75650D0A0473
S123F2800D0A4C6F6164204F4B0D0A040D0A53544F50040D0A54524150049DD67E00D38EF9
S123F2A000C09FC8BDF731BDF66F86FF97008687970286409714CEF030BDF6AEBDF29A81D0
S123F2C00D27F384DF814826037EF384814726037EF38D814A26037EF393815226037EF365
S123F2E039814D26037EF30A814C26037EF586815026037EF602815326037EF6218158266F
S123F300037ED000863F9DD320ACBDF29A810D26037EF2B684DF814326037EF4658157264C
S123F320037EF49D814626037EF4D7814426037EF516863F9DD37EF2B6BDF29A810D2603AC
S123F3407EF2B684DF815226037EF3AE814126037EF3EF814226037EF3FF815826037EF4EA
S123F3600F815026037EF423814326037EF437815326037EF447814D26037EF456863F9D7E
S123F380D37EF2B6CEF035BDF6AE7EF2B6BDF6B59EC83BBDF6DEBDF7122407BDF6B59EC89D
S123F3A06E00863F9DD37EF2B69FC87EF2B6CEF1E3BDF6AEDEC808BDF6DCBDF6DCBDF6DC95
S123F3C0BDF6DABDF6DACE00C8BDF6DABDF6DEDEC8E601CE00065858BDF6DE58250786307F
S123F3E09DD37EF3E986319DD30926EC7EF2B6863D9DD3DEC8BDF6FE2464A7037EF2B6866F
S123F4003D9DD3DEC8BDF6FE2454A7027EF2B6863D9DD3BDF7122446DFCCDEC8DCCCED0450
S123F4207EF2B6863D9DD3BDF7122432DFCCDEC8DCCCED067EF2B6863D9DD3DEC8BDF6FEB7
S123F440241CA7017EF2B6863D9DD3BDF712240EDFC8357EF2B68E00C09FC8BDF2B6863F8E
S123F4609DD37EF2B6BDF6DEBDF7122429BDF6B5CE00CCBDF6DADECCBDF6DCDFCCBDF6FE2A
S123F480240D09A700A10027E4863F9DD320DE81DD27DA7EF2B6863F9DD37EF2B6BDF6DE37
S123F4A0BDF712242BDFCC7F00CBBDF6B5CE00CCBDF6DADECCBDF6FE25087D00CB26E87E53
S123F4C0F2B6A700860197CB08DFCCBDF6DE20E5863F9DD37EF2B6BDF6DEBDF7122429DFC9
S123F4E0CE862D9DD3BDF712241EDFCC9CCE231808DFCCBDF6DEBDF6FE240D16DECEE700F0
S123F500089CCC26F97EF2B6863F9DD37EF2B6863F9DD37EF2B6BDF6DEBDF71224F1DFCC65
S123F520BDF6B596CD84F097CDCEF20DBDF6AE861097CBCE00CCBDF6DABDF6DEDECCDFCEEF
S123F540BDF6DCDFCC96CD840F81082603BDF6DE810026ECDECEDFCCBDF6DEA600817E22F2
S123F5600481202C02862E9DD308DFCC96CD840F26E9BDF6B57A00CB270220B7BDF29A8161
S123F5800D27A07EF2B6CEF247BDF6AE860D9DD3863997D3BDF29A815326F5BDF29A81399E
S123F5A0274C813126EA7F00CABDF6FE16DBCAD7CA800297CBBDF712241FD6CADBCCDBCDE0
S123F5C0D7CABDF6FE16DBCAD7CA7A00CB2705A7000820EE7C00CA27B3867E97D3CEF25BA2
S123F5E0BDF6AE9DD684DF815926F87EF2B6BDF29A810D26F9867E97D3CEF280BDF6AE7E2F
S123F600F2B6863D9DD386FF9700BDF6E3240481072307863F9DD37EF2B68A8097027EF211
S123F620B6BDF6B59EC830A60084EFA700C61F5AC10026FBCEF645DFDACEBFF1DF09DE0823
S123F640860497083B9FC8CEF721DFDADE0886009708DEC8C6063AEE008CC00022C6DFCEB6
S123F660D6CEC17F27BECEF28CBDF6AE7EF3AE86059710860A971196123937D61158585880
S123F68024F9971333399612961184C0810027F8814027F29612399612961184C08100270A
S123F6A007814027F28601398600399DD308A600810426F7393CCEF02DBDF6AE383944446C
S123F6C04444840F8B30813923028B077E00D3A600BDF6BEA600087EF6C28DF38DF18620EF
S123F6E07E00D3BDF29A80302B1281092F0C84DF81112B0881162E0480070D390C39BDF604
S123F700E3240D4848484816BDF6E324031B0D390C398DEA240A97CC8DE4240497CDDECC89
S123F720399FC87EF3AE9FC8CEF293BDF6AE7EF3AE867ECEF72197E8DFE997E5DFE697E2E1
S123F740DFE397DFDFE097DCDFDD97D9DFDACEF67A97D3DFD4CEF68897D6DFD7CEF6999798
S11FF760D0DFD139960236D702A60033D7023936960236D7023332A700D7023943
S105F7EEF726F8
S111F7F200D900DC00DF00E200E500E8F29F31
S9030000FC
